{
  "contractName": "MyPrize",
  "abi": [
    {
      "constant": true,
      "inputs": [
        {
          "name": "",
          "type": "uint256"
        }
      ],
      "name": "prizes",
      "outputs": [
        {
          "name": "id",
          "type": "uint256"
        },
        {
          "name": "owner",
          "type": "address"
        },
        {
          "name": "geohash",
          "type": "bytes10"
        },
        {
          "name": "metadata",
          "type": "string"
        },
        {
          "name": "placedAt",
          "type": "uint256"
        }
      ],
      "payable": false,
      "stateMutability": "view",
      "type": "function"
    },
    {
      "inputs": [],
      "payable": false,
      "stateMutability": "nonpayable",
      "type": "constructor"
    },
    {
      "constant": false,
      "inputs": [
        {
          "name": "prizeId",
          "type": "uint256"
        },
        {
          "name": "geohash",
          "type": "bytes10"
        },
        {
          "name": "_metadata",
          "type": "string"
        }
      ],
      "name": "placePrize",
      "outputs": [],
      "payable": false,
      "stateMutability": "nonpayable",
      "type": "function"
    },
    {
      "constant": false,
      "inputs": [
        {
          "name": "prizeId",
          "type": "uint256"
        },
        {
          "name": "geohash",
          "type": "bytes10"
        }
      ],
      "name": "claimPrize",
      "outputs": [],
      "payable": false,
      "stateMutability": "nonpayable",
      "type": "function"
    }
  ],
  "bytecode": "0x608060405234801561001057600080fd5b50600061001b610178565b600191505b600a821115156101715760a0604051908101604052808381526020013373ffffffffffffffffffffffffffffffffffffffff168152602001600075ffffffffffffffffffffffffffffffffffffffffffff191681526020016020604051908101604052806000815250815260200160008152509050806000808481526020019081526020016000206000820151816000015560208201518160010160006101000a81548173ffffffffffffffffffffffffffffffffffffffff021916908373ffffffffffffffffffffffffffffffffffffffff16021790555060408201518160010160146101000a81548169ffffffffffffffffffff02191690837601000000000000000000000000000000000000000000009004021790555060608201518160020190805190602001906101569291906101d7565b50608082015181600301559050508180600101925050610020565b505061027c565b60a06040519081016040528060008152602001600073ffffffffffffffffffffffffffffffffffffffff168152602001600075ffffffffffffffffffffffffffffffffffffffffffff1916815260200160608152602001600081525090565b828054600181600116156101000203166002900490600052602060002090601f016020900481019282601f1061021857805160ff1916838001178555610246565b82800160010185558215610246579182015b8281111561024557825182559160200191906001019061022a565b5b5090506102539190610257565b5090565b61027991905b8082111561027557600081600090555060010161025d565b5090565b90565b6107b18061028b6000396000f300608060405260043610610057576000357c0100000000000000000000000000000000000000000000000000000000900463ffffffff168063895c21d11461005c578063b6a44fd2146100f2578063eccb3a4f14610142575b600080fd5b34801561006857600080fd5b506100f060048036038101908080359060200190929190803575ffffffffffffffffffffffffffffffffffffffffffff19169060200190929190803590602001908201803590602001908080601f0160208091040260200160405190810160405280939291908181526020018383808284378201915050505050509192919290505050610262565b005b3480156100fe57600080fd5b5061014060048036038101908080359060200190929190803575ffffffffffffffffffffffffffffffffffffffffffff19169060200190929190505050610430565b005b34801561014e57600080fd5b5061016d600480360381019080803590602001909291905050506105cf565b604051808681526020018573ffffffffffffffffffffffffffffffffffffffff1673ffffffffffffffffffffffffffffffffffffffff1681526020018475ffffffffffffffffffffffffffffffffffffffffffff191675ffffffffffffffffffffffffffffffffffffffffffff1916815260200180602001838152602001828103825284818151815260200191508051906020019080838360005b83811015610223578082015181840152602081019050610208565b50505050905090810190601f1680156102505780820380516001836020036101000a031916815260200191505b50965050505050505060405180910390f35b60008060008581526020019081526020016000209050600081600001541415151561028c57600080fd5b600075ffffffffffffffffffffffffffffffffffffffffffff19168375ffffffffffffffffffffffffffffffffffffffffffff1916141515156102ce57600080fd5b600073ffffffffffffffffffffffffffffffffffffffff168160010160009054906101000a900473ffffffffffffffffffffffffffffffffffffffff1673ffffffffffffffffffffffffffffffffffffffff16148061037c57508060010160009054906101000a900473ffffffffffffffffffffffffffffffffffffffff1673ffffffffffffffffffffffffffffffffffffffff163373ffffffffffffffffffffffffffffffffffffffff16145b151561038757600080fd5b60008160010160006101000a81548173ffffffffffffffffffffffffffffffffffffffff021916908373ffffffffffffffffffffffffffffffffffffffff160217905550828160010160146101000a81548169ffffffffffffffffffff021916908376010000000000000000000000000000000000000000000090040217905550818160020190805190602001906104209291906106e0565b5043816003018190555050505050565b60008060008481526020019081526020016000209050600081600001541415151561045a57600080fd5b600075ffffffffffffffffffffffffffffffffffffffffffff19168275ffffffffffffffffffffffffffffffffffffffffffff1916141580156104f557508175ffffffffffffffffffffffffffffffffffffffffffff19168160010160149054906101000a90047601000000000000000000000000000000000000000000000275ffffffffffffffffffffffffffffffffffffffffffff1916145b151561050057600080fd5b6103e88160030154430311151561051657600080fd5b338160010160006101000a81548173ffffffffffffffffffffffffffffffffffffffff021916908373ffffffffffffffffffffffffffffffffffffffff16021790555060008160010160146101000a81548169ffffffffffffffffffff02191690837601000000000000000000000000000000000000000000009004021790555060206040519081016040528060008152508160020190805190602001906105bf9291906106e0565b5060008160030181905550505050565b60006020528060005260406000206000915090508060000154908060010160009054906101000a900473ffffffffffffffffffffffffffffffffffffffff16908060010160149054906101000a90047601000000000000000000000000000000000000000000000290806002018054600181600116156101000203166002900480601f0160208091040260200160405190810160405280929190818152602001828054600181600116156101000203166002900480156106d05780601f106106a5576101008083540402835291602001916106d0565b820191906000526020600020905b8154815290600101906020018083116106b357829003601f168201915b5050505050908060030154905085565b828054600181600116156101000203166002900490600052602060002090601f016020900481019282601f1061072157805160ff191683800117855561074f565b8280016001018555821561074f579182015b8281111561074e578251825591602001919060010190610733565b5b50905061075c9190610760565b5090565b61078291905b8082111561077e576000816000905550600101610766565b5090565b905600a165627a7a72305820309c7655b74d4011862d1aad2df236908d73aba0675b6f6a617014f06f35bc9a0029",
  "source": "pragma solidity ^0.4.18;\n\ncontract MyPrize {\n  struct Prize {\n    uint id;\n    address owner;        // current owner\n    bytes10 geohash;      // current unclaimed location\n    string metadata;      // probably a URL pointing to the full metadata\n    uint placedAt;        // block count when it was placed\n  }\n\n  mapping (uint => Prize) public prizes;\n\n  // Constructor\n  function MyPrize() public {\n    for (uint i=1; i <= 10; i++) {\n        Prize memory prize = Prize({id: i, owner: msg.sender, geohash: \"\", metadata: \"\", placedAt: 0});\n        prizes[i] = prize;\n    }\n  }\n\n  function placePrize (uint prizeId, bytes10 geohash, string _metadata) public {\n    var prize = prizes[prizeId];\n    require (prize.id != 0);\n    require (geohash != bytes10(\"\"));\n    require (prize.owner == address(0) || msg.sender == prize.owner);\n    prize.owner = address(0);\n    prize.geohash = geohash;\n    prize.metadata = _metadata;\n    prize.placedAt = block.number;\n  }\n\n  function claimPrize (uint prizeId, bytes10 geohash) public {\n    var prize = prizes[prizeId];\n    require (prize.id != 0);\n    require (geohash != bytes10(\"\") && prize.geohash == geohash);\n    require (block.number - prize.placedAt > 1000);\n    prize.owner = msg.sender;\n    prize.geohash = \"\";\n    prize.metadata = \"\";\n    prize.placedAt = 0;\n  }\n}\n",
  "sourcePath": "/home/hshar/code/consensys-blank/truffle/contracts/MyPrize.sol",
  "compiler": {
    "name": "solc",
    "version": "0.4.23+commit.124ca40d.Emscripten.clang"
  },
  "schemaVersion": "2.0.0",
  "updatedAt": "2018-07-07T11:02:01.404Z"
}