{
  "contractName": "PrizeLedger",
  "abi": [
    {
      "constant": true,
      "inputs": [
        {
          "name": "",
          "type": "uint256"
        }
      ],
      "name": "prizes",
      "outputs": [
        {
          "name": "id",
          "type": "uint256"
        },
        {
          "name": "owner_id",
          "type": "uint256"
        },
        {
          "name": "name",
          "type": "string"
        }
      ],
      "payable": false,
      "stateMutability": "view",
      "type": "function"
    },
    {
      "inputs": [],
      "payable": false,
      "stateMutability": "nonpayable",
      "type": "constructor"
    },
    {
      "constant": false,
      "inputs": [
        {
          "name": "_id",
          "type": "uint256"
        },
        {
          "name": "_owner_id",
          "type": "uint256"
        },
        {
          "name": "_name",
          "type": "string"
        }
      ],
      "name": "name_and_award_prize",
      "outputs": [],
      "payable": false,
      "stateMutability": "nonpayable",
      "type": "function"
    }
  ],
  "bytecode": "0x608060405234801561001057600080fd5b50600061001b6100b4565b600191505b600a821115156100ad576060604051908101604052808381526020016000815260200160206040519081016040528060008152508152509050806000808481526020019081526020016000206000820151816000015560208201518160010155604082015181600201908051906020019061009c9291906100d6565b509050508180600101925050610020565b505061017b565b6060604051908101604052806000815260200160008152602001606081525090565b828054600181600116156101000203166002900490600052602060002090601f016020900481019282601f1061011757805160ff1916838001178555610145565b82800160010185558215610145579182015b82811115610144578251825591602001919060010190610129565b5b5090506101529190610156565b5090565b61017891905b8082111561017457600081600090555060010161015c565b5090565b90565b6103768061018a6000396000f30060806040526004361061004c576000357c0100000000000000000000000000000000000000000000000000000000900463ffffffff1680633a00945d14610051578063eccb3a4f146100ce575b600080fd5b34801561005d57600080fd5b506100cc6004803603810190808035906020019092919080359060200190929190803590602001908201803590602001908080601f0160208091040260200160405190810160405280939291908181526020018383808284378201915050505050509192919290505050610182565b005b3480156100da57600080fd5b506100f9600480360381019080803590602001909291905050506101e3565b6040518084815260200183815260200180602001828103825283818151815260200191508051906020019080838360005b8381101561014557808201518184015260208101905061012a565b50505050905090810190601f1680156101725780820380516001836020036101000a031916815260200191505b5094505050505060405180910390f35b6000806000858152602001908152602001600020905060008160000154141515156101ac57600080fd5b6000831115156101bb57600080fd5b818160020190805190602001906101d39291906102a5565b5082816001018190555050505050565b6000602052806000526040600020600091509050806000015490806001015490806002018054600181600116156101000203166002900480601f01602080910402602001604051908101604052809291908181526020018280546001816001161561010002031660029004801561029b5780601f106102705761010080835404028352916020019161029b565b820191906000526020600020905b81548152906001019060200180831161027e57829003601f168201915b5050505050905083565b828054600181600116156101000203166002900490600052602060002090601f016020900481019282601f106102e657805160ff1916838001178555610314565b82800160010185558215610314579182015b828111156103135782518255916020019190600101906102f8565b5b5090506103219190610325565b5090565b61034791905b8082111561034357600081600090555060010161032b565b5090565b905600a165627a7a72305820cd978f796cc0076e0d16dcdd392e42bf028f6ccb2eaf7b15d1503d31dc6ad3730029",
  "source": "pragma solidity ^0.4.23;\n\ncontract PrizeLedger {\n  struct Prize {\n    uint id;\n    uint owner_id;    // current owner\n    string name;      // name of prize\n  }\n\n  mapping (uint => Prize) public prizes;\n\n  // Constructor makes 10 prizes\n  constructor() public {\n    for (uint i=1; i <= 10; i++) {\n        Prize memory prize = Prize({id: i, owner_id: 0, name: \"\"});\n        prizes[i] = prize;\n    }\n  }\n\n  function name_and_award_prize(uint _id, uint _owner_id ,string _name) public {\n    var prize = prizes[_id];\n    require (prize.id != 0);\n    require (_owner_id > 0);\n    prize.name = _name;\n    prize.owner_id = _owner_id;\n  }\n}\n",
  "sourcePath": "/home/hshar/code/consensys-blank/truffle/contracts/PrizeLedger.sol",
  "compiler": {
    "name": "solc",
    "version": "0.4.23+commit.124ca40d.Emscripten.clang"
  },
  "schemaVersion": "2.0.0",
  "updatedAt": "2018-07-07T17:53:36.536Z"
}